:020000040800F2
:1000000000500020E10C0008350C00083B0C0008F3
:10001000410C0008470C00084D0C000800000000CF
:10002000000000000000000000000000530C000869
:100030005F0C0008000000006B0C0008770C000843
:10004000290D0008290D0008290D0008290D0008B8
:10005000290D0008290D0008290D0008290D0008A8
:10006000290D0008290D0008290D0008290D000898
:10007000850C0008290D0008990C0008AD0C00083B
:10008000290D0008C10C0008290D0008290D0008E1
:10009000290D0008290D0008290D0008290D000868
:1000A000290D0008290D0008290D0008290D000858
:1000B000290D0008290D0008290D0008290D000848
:1000C000290D0008290D0008290D0008290D000838
:1000D000290D0008290D0008290D0008290D000828
:1000E000290D0008290D0008290D00080000000056
:1000F0000000000000000000000000000000000000
:0C01000000000000000000005FF808F1A3
:10010C0010B5054C237833B9044B13B10448AFF345
:10011C0000800123237010BD0C00002000000000A3
:10012C009C26000808B5034B1BB103490348AFF3E9
:10013C00008008BD00000000100000209C26000874
:10014C0080B485B000AF78600023FB6008E0FB68EA
:10015C009B007A681344074A1A60FB680133FB6002
:10016C00FB68632BF3D900BF00BF1437BD4680BCBE
:10017C00704700BF0000FFFF80B487B000AF03469C
:10018C00B9607A60FB8100237B613DE07A69BB68D2
:10019C009A421BD27B699B007A6813441A68FB89CC
:1001AC001B04DB4318467B699B0079680B440240B7
:1001BC001A607B699B007A6813441968FA897B6919
:1001CC009B00786803440A431A601AE07B699B0021
:1001DC007A6813441A68FB89DB4318467B699B00D9
:1001EC0079680B4402401A607B699B007A6813445F
:1001FC001968FB891A047B699B00786803440A43DD
:10020C001A607B6901337B617B69632BBED900BFAC
:10021C0000BF1C37BD4680BC7047000080B582B063
:10022C0000AF00F07DFD00F027F900F0B3FA00F00C
:10023C007BFA00F02DFA00F0DFF900F08DF900F0F8
:10024C0057F9814801F090FF804801F08DFF8048FC
:10025C0001F08AFF7F494FF4C8737F4A7F4801F051
:10026C0025F87F494FF4C8737E4A7F4801F01EF889
:10027C007E494FF4C8737E4A7E4801F017F8724BE2
:10028C001B68DA68704B1B6842F48072DA606F4B43
:10029C001B68DA686D4B1B6842F48072DA606C4B39
:1002AC001B68DA686A4B1B6842F48072DA600023C0
:1002BC007B6000233B606748FFF742FF6848FFF70D
:1002CC003FFF6A48FFF73CFF624A79680120FFF75D
:1002DC0053FF604A79680220FFF74EFF5D4A796848
:1002EC000420FFF749FF5B4A79680820FFF744FFB9
:1002FC00584A79681020FFF73FFF564A796820204A
:10030C00FFF73AFF534A79684020FFF735FF514A0F
:10031C0079688020FFF730FF4E4A79684FF480707F
:10032C00FFF72AFF4B4A79684FF40070FFF724FF60
:10033C00484A79684FF48060FFF71EFF454A796898
:10034C004FF40060FFF718FF424A79684FF4805071
:10035C00FFF712FF3F4A79684FF40040FFF70CFF9C
:10036C003F4A79680120FFF707FF3D4A7968022070
:10037C00FFF702FF3A4A79680420FFF7FDFE384A7E
:10038C0079680820FFF7F8FE354A79681020FFF7E6
:10039C00F3FE334A79682020FFF7EEFE304A796885
:1003AC004020FFF7E9FE2E4A79688020FFF7E4FE33
:1003BC002B4A79684FF48060FFF7DEFE284A796893
:1003CC004FF40060FFF7D8FE254A79684FF480504F
:1003DC00FFF7D2FE224A79684FF40050FFF7CCFEAB
:1003EC001F4A79684FF48040FFF7C6FE1C4A7968B3
:1003FC004FF40040FFF7C0FE1C4A79684FF40050E0
:10040C00FFF7BAFE194A79684FF48040FFF7B4FE43
:10041C00164A79684FF40040FFF7AEFE7B68002B5C
:10042C0002D101233B6004E07B68642B01D10023E3
:10043C003B603B68012B03D17B6801337B6043E756
:10044C007B68013B7B603FE7500000209800002058
:10045C00E000002038020020100801402801002094
:10046C00C80300200C0C0140B001002058050020EE
:10047C0010100140F401002080B590B000AF07F1DE
:10048C00180328220021184602F0FAF83B1D00221E
:10049C001A605A609A60DA601A610223BB61012308
:1004AC00BB621023FB6200237B6307F11803184621
:1004BC0001F02CFA0346002B01D000F01DFA0F239B
:1004CC007B600023BB600023FB6000233B610023A7
:1004DC007B613B1D0021184601F09AFC0346002B62
:1004EC0001D000F009FA00BF4037BD4680BD0000C6
:1004FC0080B500AF164B174A1A60154B10225A6084
:10050C00134B00229A60124B0022DA60104B00222F
:10051C001A610F4B00225A610D4B00221A760C4BBC
:10052C0000225A760A4B00229A76094B0022DA7680
:10053C00074B00221A77064B00225A77044800F02A
:10054C0051FC0346002B01D000F0D6F900BF80BD52
:10055C00280000200064004080B586B000AF07F191
:10056C00080300221A605A609A60DA603B46002247
:10057C001A605A601E4B1F4A1A601D4B00225A60AB
:10058C001B4B00229A601A4B3122DA60184B002266
:10059C001A61174B00225A61154B00229A611448BC
:1005AC0001F092FD0346002B01D000F0A5F94FF4A9
:1005BC008053BB6007F1080319460D4801F01EFE7D
:1005CC000346002B01D000F097F920233B60002359
:1005DC007B603B461946064801F0D0FF0346002BD2
:1005EC0001D000F089F900BF1837BD4680BD00BFAF
:1005FC0050000020002C014080B586B000AF07F100
:10060C00080300221A605A609A60DA603B460022A6
:10061C001A605A601D4B4FF080421A601B4B00222F
:10062C005A601A4B00229A60184B3122DA60174B31
:10063C0000221A61154B00229A61144801F044FD06
:10064C000346002B01D000F057F94FF48053BB60E8
:10065C0007F1080319460D4801F0D0FD0346002BA5
:10066C0001D000F049F920233B6000237B603B461E
:10067C001946064801F082FF0346002B01D000F01A
:10068C003BF900BF1837BD4680BD00BF9800002065
:10069C0080B586B000AF07F1080300221A605A60DB
:1006AC009A60DA603B4600221A605A601C4B1D4A65
:1006BC001A601B4B00225A60194B00229A60184B8F
:1006CC003122DA60164B00221A61154B80229A6196
:1006DC00134801F0F9FC0346002B01D000F00CF993
:1006EC004FF48053BB6007F1080319460C4801F026
:1006FC0085FD0346002B01D000F0FEF820233B6063
:10070C0000237B603B461946054801F037FF034642
:10071C00002B01D000F0F0F800BF1837BD4680BDAB
:10072C00E00000200008004080B582B000AF184BFC
:10073C005B69174A43F001035361154B5B6903F086
:10074C0001037B607B68002200210C2000F01DFD62
:10075C000C2000F036FD002200210E2000F015FDCB
:10076C000E2000F02EFD002200210F2000F00DFDC8
:10077C000F2000F026FD00220021112000F005FDC5
:10078C00112000F01EFD00BF0837BD4680BD00BF24
:10079C000010024080B588B000AF07F110030022B2
:1007AC001A605A609A60DA604F4B9B694E4A43F06C
:1007BC00100393614C4B9B6903F01003FB60FB68C7
:1007CC00494B9B69484A43F020039361464B9B6914
:1007DC0003F02003BB60BB68434B9B69424A43F068
:1007EC0004039361404B9B6903F004037B607B68BB
:1007FC003D4B9B693C4A43F0080393613A4B9B6920
:10080C0003F008033B603B6800224FF4604137481B
:10081C0001F064F8002249F6FF71354801F05EF8EA
:10082C0000224FF6FF41334801F058F84FF40053C3
:10083C003B6101237B610223BB610223FB6107F156
:10084C0010031946294800F0C5FE4FF440433B61A4
:10085C0001237B610023BB610223FB6107F11003C1
:10086C001946224800F0B6FE03233B6101237B614D
:10087C000123BB610223FB6107F1100319461C48DD
:10088C0000F0A8FE48F6FC733B6101237B6100235A
:10089C00BB610223FB6107F110031946144800F0F9
:1008AC0099FE4FF6FF433B6101237B610023BB6143
:1008BC000223FB6107F1100319460E4800F08AFE73
:1008CC004FF480533B6101237B610023BB61032305
:1008DC00FB6107F110031946054800F07BFE00BFD1
:1008EC002037BD4680BD00BF001002400010014003
:1008FC0000080140000C014080B400AF72B600BF8C
:10090C00FEE7000080B485B000AF154B9B69144A1C
:10091C0043F001039361124B9B6903F00103BB602D
:10092C00BB680F4BDB690E4A43F08053D3610C4B11
:10093C00DB6903F080537B607B680A4B5B68FB6070
:10094C00FB6823F0E063FB60FB6843F00073FB6023
:10095C00044AFB68536000BF1437BD4680BC704727
:10096C00001002400000014080B58AB000AF7860F2
:10097C0007F1140300221A605A609A60DA607B68EF
:10098C001B68254A934243D1244BDB69234A43F02D
:10099C000073D361214BDB6903F000733B613B694E
:1009AC001E4B9B691D4A43F0080393611B4B9B69CB
:1009BC0003F00803FB60FB684FF480737B6100233A
:1009CC00BB610023FB6107F114031946144800F0C6
:1009DC0001FE4FF400737B610223BB6103233B6276
:1009EC0007F1140319460E4800F0F4FD0D4B5B683B
:1009FC007B627B6A23F4C0437B627B6A43F0E063D7
:100A0C007B627B6A43F480437B62064A7B6A536059
:100A1C0000BF2837BD4680BD006400400010024076
:100A2C00000C01400000014080B586B000AF78603A
:100A3C007B681B68714A934268D1714B9B69704A01
:100A4C0043F4006393616E4B9B6903F400637B6119
:100A5C007B696C4B6C4A1A606A4B10225A60694B6A
:100A6C0000229A60674B8022DA60664B4FF400726A
:100A7C001A61644B4FF400625A61624B20229A61F6
:100A8C00604B0022DA615F4800F0B6FB0346002B96
:100A9C0001D0FFF731FF7B685A4A1A62594A7B68CA
:100AAC0053625A4B5A4A1A60584B10225A60574B91
:100ABC0000229A60554B8022DA60544B4FF400723E
:100ACC001A61524B4FF400625A61504B20229A61CA
:100ADC004E4B0022DA614D4800F08EFB0346002B92
:100AEC0001D0FFF709FF7B68484A1A63474A7B68C5
:100AFC0053627B68454A9A63444A7B6853627B68BD
:100B0C00424A5A63414A7B68536272E07B681B68B5
:100B1C00B3F1804F34D13A4BDB69394A43F00103CE
:100B2C00D361374BDB6903F001033B613B69394B04
:100B3C00394A1A60374B10225A60364B00229A60A1
:100B4C00344B8022DA60334B4FF400721A61314B14
:100B5C004FF400625A612F4B20229A612D4B0022D8
:100B6C00DA612C4800F048FB0346002B01D0FFF75C
:100B7C00C3FE7B68274A1A62264A7B68536238E0B8
:100B8C007B681B68254A934233D11D4BDB691C4A99
:100B9C0043F00403D3611A4BDB6903F00403FB60DD
:100BAC00FB681F4B1F4A1A601D4B10225A601C4BCE
:100BBC0000229A601A4B8022DA60194B4FF40072B3
:100BCC001A61174B4FF400625A61154B20229A613F
:100BDC00134B0022DA61124800F00EFB0346002B87
:100BEC0001D0FFF789FE7B680D4A1A620C4A7B68BC
:100BFC00536200BF1837BD4680BD00BF002C0140BA
:100C0C000010024028010020580002406C01002016
:100C1C0044000240B00100201C00024000080040CB
:100C2C00F40100208000024080B400AFFEE780B4E5
:100C3C0000AFFEE780B400AFFEE780B400AFFEE784
:100C4C0080B400AFFEE780B400AF00BFBD4680BCEF
:100C5C00704780B400AF00BFBD4680BC704780B405
:100C6C0000AF00BFBD4680BC704780B500AF00F040
:100C7C009DF800BF80BD000080B500AF024800F0B9
:100C8C0075FB00BF80BD00BFB001002080B500AF78
:100C9C00024800F06BFB00BF80BD00BF6C01002060
:100CAC0080B500AF024800F061FB00BF80BD00BF03
:100CBC002801002080B500AF024800F057FB00BFB0
:100CCC0080BD00BFF401002080B400AF00BFBD4662
:100CDC0080BC7047FFF7F8FF0B480C490C4A002307
:100CEC0002E0D458C4500433C4188C42F9D3094AD6
:100CFC00094C002301E013600432A242FBD301F043
:100D0C009BFCFFF78BFA7047000000200C000020C2
:100D1C00E02600080C000020EC060020FEE7000096
:100D2C0080B500AF084B1B68074A43F010031360F3
:100D3C00032000F01FFA0F2000F008F8FFF7E2FD87
:100D4C000023184680BD00BF0020024080B582B051
:100D5C0000AF7860124B1A68124B1B7819464FF48F
:100D6C007A73B3FBF1F3B2FBF3F3184600F037FAE6
:100D7C000346002B01D001230EE07B680F2B0AD811
:100D8C00002279684FF0FF3000F0FFF9064A7B68CB
:100D9C001360002300E0012318460837BD4680BDD0
:100DAC0000000020080000200400002080B400AFE8
:100DBC00054B1B781A46054B1B681344034A1360FA
:100DCC0000BFBD4680BC704708000020E80600202C
:100DDC0080B400AF024B1B681846BD4680BC704700
:100DEC00E806002080B584B000AF78607B68002BEB
:100DFC0001D10123EDE07B6893F82030DBB2002BAE
:100E0C0002D17868FFF7B0FD7B681B681A687B68B5
:100E1C001B6842F001021A60FFF7DAFFF86012E07B
:100E2C00FFF7D6FF0246FB68D31A0A2B0BD97B6857
:100E3C005B6A43F400327B685A627B68052283F854
:100E4C0020200123C5E07B681B685B6803F001036D
:100E5C00002BE5D07B681B681A687B681B6822F046
:100E6C0002021A60FFF7B4FFF86012E0FFF7B0FF60
:100E7C000246FB68D31A0A2B0BD97B685B6A43F4D6
:100E8C0000327B685A627B68052283F8202001239C
:100E9C009FE07B681B685B6803F00203002BE5D1C5
:100EAC007B681B7E012B08D17B681B681A687B68EA
:100EBC001B6842F080021A6007E07B681B681A68A6
:100ECC007B681B6822F080021A607B685B7E012BBA
:100EDC0008D17B681B681A687B681B6842F040026B
:100EEC001A6007E07B681B681A687B681B6822F035
:100EFC0040021A607B689B7E012B08D17B681B68C3
:100F0C001A687B681B6842F020021A6007E07B6855
:100F1C001B681A687B681B6822F020021A607B68C9
:100F2C00DB7E012B08D17B681B681A687B681B6809
:100F3C0022F010021A6007E07B681B681A687B6855
:100F4C001B6842F010021A607B681B7F012B08D1D2
:100F5C007B681B681A687B681B6842F008021A6081
:100F6C0007E07B681B681A687B681B6822F0080224
:100F7C001A607B685B7F012B08D17B681B681A6841
:100F8C007B681B6842F004021A6007E07B681B68F0
:100F9C001A687B681B6822F004021A607B689A68E6
:100FAC007B68DB681A437B681B691A437B685B6947
:100FBC0042EA03017B685B685A1E7B681B680A4324
:100FCC00DA617B6800225A627B68012283F8202058
:100FDC00002318461037BD4680BD000080B485B094
:100FEC0000AF78607B6803F00703FB600C4BDB6899
:100FFC00BB60BA684FF6FF031340BB60FB681A0274
:10100C00BB68134343F0BF6343F40033BB60044A33
:10101C00BB68D36000BF1437BD4680BC704700BFAF
:10102C0000ED00E080B400AF044BDB681B0A03F05A
:10103C0007031846BD4680BC704700BF00ED00E0BA
:10104C0080B483B000AF0346FB7197F90730002BD7
:10105C000BDBFB7903F01F02064997F907305B099C
:10106C00012000FA02F241F8232000BF0C37BD46E4
:10107C0080BC704700E100E080B483B000AF034651
:10108C003960FB7197F90730002B0ADB3B68DAB249
:10109C000C4997F907301201D2B20B4483F80023A4
:1010AC000AE03B68DAB20849FB7903F00F03043B12
:1010BC001201D2B20B441A7600BF0C37BD4680BC6D
:1010CC00704700BF00E100E000ED00E080B489B0A3
:1010DC0000AFF860B9607A60FB6803F00703FB614E
:1010EC00FB69C3F10703042B28BF0423BB61FB6915
:1010FC000433062B02D9FB69033B00E000237B6120
:10110C004FF0FF32BB6902FA03F3DA43BB681A40B3
:10111C007B699A404FF0FF317B6901FA03F3D943A5
:10112C007B680B40134318462437BD4680BC704780
:10113C0080B582B000AF78607B68013BB3F1807FF3
:10114C0001D301230FE00A4A7B68013B53600F2156
:10115C004FF0FF30FFF790FF054B00229A60044BD5
:10116C0007221A60002318460837BD4680BD00BF11
:10117C0010E000E080B582B000AF78607868FFF7CF
:10118C002DFF00BF0837BD4680BD80B586B000AFCF
:10119C000346B9607A60FB7300237B61FFF742FF63
:1011AC0078617A68B9687869FFF790FF024697F919
:1011BC000F3011461846FFF75FFF00BF1837BD46CA
:1011CC0080BD80B582B000AF0346FB7197F9073044
:1011DC001846FFF735FF00BF0837BD4680BD80B508
:1011EC0082B000AF78607868FFF7A2FF034618461C
:1011FC000837BD4680BD000080B485B000AF786074
:10120C000023FB607B68002B01D1012343E07B684A
:10121C001B681A46224B1344224AA2FB03231B09C8
:10122C009A007B681A647B681F4ADA637B68022227
:10123C0083F821207B681B681B68FB60FB6823F428
:10124C007F5323F03003FB607B685A687B689B6894
:10125C001A437B68DB681A437B681B691A437B68FB
:10126C005B691A437B689B691A437B68DB69134390
:10127C00FA681343FB607B681B68FA681A607B682A
:10128C0000229A637B68012283F821207B6800226C
:10129C0083F82020002318461437BD4680BC7047C5
:1012AC00F8FFFDBFCDCCCCCC0000024080B586B0A1
:1012BC0000AFF860B9607A603B600023FB75FB6897
:1012CC0093F82030012B01D102234BE0FB68012263
:1012DC0083F82020FB6893F82130DBB2012B3AD144
:1012EC00FB68022283F82120FB6800229A63FB68CA
:1012FC001B681A68FB681B6822F001021A603B68C5
:10130C007A68B968F86800F037F9FB68DB6A002B7B
:10131C0008D0FB681B681A68FB681B6842F00E0259
:10132C001A600FE0FB681B681A68FB681B6822F0E8
:10133C0004021A60FB681B681A68FB681B6842F0A1
:10134C000A021A60FB681B681A68FB681B6842F08B
:10135C0001021A6005E0FB68002283F820200223BA
:10136C00FB75FB7D18461837BD4680BD80B584B033
:10137C0000AF78607B68DB6B1B68FB607B681B686D
:10138C001B68BB607B681B6C04229A40FB68134093
:10139C00002B4FD0BB6803F00403002B4AD07B68B2
:1013AC001B681B6803F02003002B07D17B681B68AC
:1013BC001A687B681B6822F004021A607B681B6841
:1013CC00664A934229D07B681B68654A934222D0B7
:1013DC007B681B68634A93421AD07B681B68624A1D
:1013EC00934212D07B681B68604A93420AD07B6898
:1013FC001B685F4A934202D14FF480030EE04FF01A
:10140C0080630BE04FF4802308E04FF4804305E049
:10141C004FF4806302E0402300E00423554A5360FC
:10142C007B68DB6A002B00F094807B68DB6A786851
:10143C0098478EE07B681B6C02229A40FB68134035
:10144C00002B56D0BB6803F00203002B51D07B68F5
:10145C001B681B6803F02003002B0BD17B681B68F7
:10146C001A687B681B6822F00A021A607B680122EA
:10147C0083F821207B681B68384A934229D07B680B
:10148C001B68374A934222D07B681B68354A9342CB
:10149C001AD07B681B68344A934212D07B681B6855
:1014AC00324A93420AD07B681B68314A934202D17C
:1014BC004FF400130EE04FF000730BE04FF40033C9
:1014CC0008E04FF4005305E04FF4007302E02023D2
:1014DC0000E00223274A53607B68002283F8202017
:1014EC007B689B6A002B34D07B689B6A7868984732
:1014FC002FE07B681B6C08229A40FB681340002B82
:10150C0028D0BB6803F00803002B23D07B681B6832
:10151C001A687B681B6822F00E021A607B681A6CD2
:10152C007B68DB6B012101FA02F25A607B680122B5
:10153C009A637B68012283F821207B68002283F860
:10154C0020207B681B6B002B04D07B681B6B78689E
:10155C00984700BF00BF1037BD4680BD0800024051
:10156C001C0002403000024044000240580002407F
:10157C006C0002400000024080B485B000AFF860FF
:10158C00B9607A603B60FB681A6CFB68DB6B01210D
:10159C0001FA02F25A60FB681B683A685A60FB68F1
:1015AC005B68102B08D1FB681B687A689A60FB6833
:1015BC001B68BA68DA6007E0FB681B68BA689A6057
:1015CC00FB681B687A68DA6000BF1437BD4680BCC4
:1015DC007047000080B48BB000AF78603960002396
:1015EC007B6200233B6269E101227B6A02FA03F30E
:1015FC00FB613B681B68FA691340BB61BA69FB6904
:10160C009A4240F058813B685B689A4A93425ED09C
:10161C00984A934275D8984A934258D0964A934226
:10162C006FD8964A934252D0944A934269D8944ABE
:10163C0093424CD0924A934263D8924A934246D0FA
:10164C00904A93425DD8122B2AD8122B59D801A25A
:10165C0052F823F0DB160008B5160008C716000870
:10166C00091700080F1700080F1700080F170008BC
:10167C000F1700080F1700080F1700080F170008A6
:10168C000F1700080F1700080F1700080F17000896
:10169C000F1700080F170008BD160008D116000818
:1016AC00794A934213D02CE03B68DB683B6229E01B
:1016BC003B68DB6804333B6224E03B68DB6808333F
:1016CC003B621FE03B68DB680C333B621AE03B6813
:1016DC009B68002B02D104233B6213E03B689B68A0
:1016EC00012B05D108233B627B68FA691A6109E07A
:1016FC0008233B627B68FA695A6103E000233B6272
:10170C0000E000BFBB69FF2B01D87B6801E07B6860
:10171C0004337B61BB69FF2B02D87B6A9B0002E020
:10172C007B6A083B9B003B617B691A680F213B6914
:10173C0001FA03F3DB431A40396A3B6901FA03F3FC
:10174C001A437B691A603B685B6803F08053002B7B
:10175C0000F0B1804D4B9B694C4A43F001039361FF
:10176C004A4B9B6903F00103BB60BB68484A7B6A28
:10177C009B08023352F82330FB607B6A03F00303AF
:10178C009B000F2202FA03F3DB43FA681340FB6061
:10179C007B68404A934213D07B683F4A93420DD0FA
:1017AC007B683E4A934207D07B683D4A934201D105
:1017BC00032306E0042304E0022302E0012300E0FB
:1017CC0000237A6A02F0030292009340FA681343F2
:1017DC00FB602F497B6A9B080233FA6841F823208F
:1017EC003B685B6803F48013002B06D02D4B9A6882
:1017FC002C49BB6913438B6006E02A4B9A68BB6982
:10180C00DB43284913408B603B685B6803F400138F
:10181C00002B06D0234BDA682249BB691343CB60FB
:10182C0006E0204BDA68BB69DB431E491340CB60F2
:10183C003B685B6803F40033002B06D0194B5A68E5
:10184C001849BB6913434B6006E0164B5A68BB69D9
:10185C00DB43144913404B603B685B6803F48033F3
:10186C00002B21D00F4B1A680E49BB6913430B6038
:10187C0021E000BF000032100000311000002210E7
:10188C000000211000001210000011100010024086
:10189C000000014000080140000C01400010014014
:1018AC0000140140000401400B4B1A68BB69DB4378
:1018BC00094913400B607B6A01337B623B681A68F1
:1018CC007B6A22FA03F3002B7FF48EAE00BF00BFBD
:1018DC002C37BD4680BC70470004014080B483B0F7
:1018EC0000AF78600B467B8013467B707B78002BB7
:1018FC0003D07A887B681A6103E07B881A047B68C2
:10190C001A6100BF0C37BD4680BC704780B586B0ED
:10191C0000AF78607B68002B01D1012372E27B68F9
:10192C001B6803F00103002B00F08780924B5B686F
:10193C0003F00C03042B0CD08F4B5B6803F00C03EF
:10194C00082B12D18C4B5B6803F48033B3F5803FCA
:10195C000BD1894B1B6803F40033002B6CD07B68D4
:10196C005B68002B68D101234CE27B685B68B3F5A4
:10197C00803F06D1804B1B687F4A43F48033136051
:10198C002EE07B685B68002B0CD17B4B1B687A4A82
:10199C0023F480331360784B1B68774A23F480233D
:1019AC0013601DE07B685B68B3F5A02F0CD1724B04
:1019BC001B68714A43F4802313606F4B1B686E4A9B
:1019CC0043F4803313600BE06B4B1B686A4A23F4BF
:1019DC0080331360684B1B68674A23F480231360C1
:1019EC007B685B68002B13D0FFF7F2F9386108E0D5
:1019FC00FFF7EEF902463B69D31A642B01D9032396
:101A0C0000E25D4B1B6803F40033002BF0D014E0B4
:101A1C00FFF7DEF9386108E0FFF7DAF902463B69B7
:101A2C00D31A642B01D90323ECE1534B1B6803F449
:101A3C000033002BF0D100E000BF7B681B6803F083
:101A4C000203002B63D04C4B5B6803F00C03002BA0
:101A5C000BD0494B5B6803F00C03082B1CD1464B95
:101A6C005B6803F48033002B16D1434B1B6803F0E7
:101A7C000203002B05D07B681B69012B01D00123CD
:101A8C00C0E13D4B1B6823F0F8027B685B69DB000F
:101A9C00394913430B603AE07B681B69002B20D05B
:101AAC00364B01221A60FFF793F9386108E0FFF713
:101ABC008FF902463B69D31A022B01D90323A1E10A
:101ACC002D4B1B6803F00203002BF0D02A4B1B6834
:101ADC0023F0F8027B685B69DB00274913430B603A
:101AEC0015E0264B00221A60FFF772F9386108E006
:101AFC00FFF76EF902463B69D31A022B01D9032377
:101B0C0080E11D4B1B6803F00203002BF0D17B68B6
:101B1C001B6803F00803002B3AD07B689B69002BF1
:101B2C0019D0174B01221A60FFF752F9386108E0FF
:101B3C00FFF74EF902463B69D31A022B01D9032356
:101B4C0060E10D4B5B6A03F00203002BF0D0012027
:101B5C0000F09CFA1CE00A4B00221A60FFF738F9DF
:101B6C0038610FE0FFF734F902463B69D31A022BB8
:101B7C0008D9032346E100BF001002400000424296
:101B8C0080044242924B5B6A03F00203002BE9D1C2
:101B9C007B681B6803F00403002B00F0A680002375
:101BAC00FB758B4BDB6903F08053002B0DD1884BFD
:101BBC00DB69874A43F08053D361854BDB6903F0C3
:101BCC008053BB60BB680123FB75824B1B6803F41D
:101BDC008073002B18D17F4B1B687E4A43F48073B3
:101BEC001360FFF7F5F8386108E0FFF7F1F80246EB
:101BFC003B69D31A642B01D9032303E1754B1B6892
:101C0C0003F48073002BF0D07B68DB68012B06D1CA
:101C1C006F4B1B6A6E4A43F0010313622DE07B6825
:101C2C00DB68002B0CD16A4B1B6A694A23F0010359
:101C3C001362674B1B6A664A23F0040313621CE0B1
:101C4C007B68DB68052B0CD1614B1B6A604A43F047
:101C5C00040313625E4B1B6A5D4A43F0010313627B
:101C6C000BE05B4B1B6A5A4A23F001031362584B7F
:101C7C001B6A574A23F0040313627B68DB68002B52
:101C8C0015D0FFF7A5F838610AE0FFF7A1F8024676
:101C9C003B69D31A41F28832934201D90323B1E054
:101CAC004B4B1B6A03F00203002BEED014E0FFF742
:101CBC008FF838610AE0FFF78BF802463B69D31ABC
:101CCC0041F28832934201D903239BE0404B1B6ABB
:101CDC0003F00203002BEED1FB7D012B05D13C4B15
:101CEC00DB693B4A23F08053D3617B68DB69002BB3
:101CFC0000F08780364B5B6803F00C03082B61D037
:101D0C007B68DB69022B46D1334B00221A60FFF74C
:101D1C005FF8386108E0FFF75BF802463B69D31ABD
:101D2C00022B01D903236DE0294B1B6803F00073D0
:101D3C00002BF0D17B681B6AB3F5803F08D1244B94
:101D4C005B6823F400327B689B68214913434B602A
:101D5C001F4B5B6823F474127B68196A7B685B6A9F
:101D6C000B431B4913434B601B4B01221A60FFF7BB
:101D7C002FF8386108E0FFF72BF802463B69D31ABD
:101D8C00022B01D903233DE0114B1B6803F00073B8
:101D9C00002BF0D035E0104B00221A60FFF718F83A
:101DAC00386108E0FFF714F802463B69D31A022B9E
:101DBC0001D9032326E0064B1B6803F00073002BAC
:101DCC00F0D11EE07B68DB69012B07D1012319E000
:101DDC000010024000700040600042420B4B5B68F8
:101DEC00FB60FB6803F480327B681B6A9A4206D165
:101DFC00FB6803F470127B685B6A9A4201D0012382
:101E0C0000E0002318461837BD4680BD0010024084
:101E1C0080B584B000AF786039607B68002B01D14D
:101E2C000123D0E06A4B1B6803F007033A689A421F
:101E3C0010D9674B1B6823F0070265493B681343B5
:101E4C000B60634B1B6803F007033A689A4201D09E
:101E5C000123B8E07B681B6803F00203002B20D041
:101E6C007B681B6803F00403002B05D0594B5B689F
:101E7C00584A43F4E06353607B681B6803F0080323
:101E8C00002B05D0534B5B68524A43F460535360AC
:101E9C00504B5B6823F0F0027B689B684D49134301
:101EAC004B607B681B6803F00103002B40D07B6800
:101EBC005B68012B07D1474B1B6803F40033002BE5
:101ECC0015D101237FE07B685B68022B07D1414B66
:101EDC001B6803F00073002B09D1012373E03D4B09
:101EEC001B6803F00203002B01D101236BE0394B7B
:101EFC005B6823F003027B685B68364913434B60D5
:101F0C00FEF766FFF8600AE0FEF762FF0246FB6828
:101F1C00D31A41F28832934201D9032353E02D4B5B
:101F2C005B6803F00C027B685B689B009A42EBD108
:101F3C00274B1B6803F007033A689A4210D2244BD4
:101F4C001B6823F0070222493B6813430B60204BAC
:101F5C001B6803F007033A689A4201D0012332E070
:101F6C007B681B6803F00403002B08D0194B5B68DB
:101F7C0023F4E0627B68DB68164913434B607B6893
:101F8C001B6803F00803002B09D0124B5B6823F489
:101F9C0060527B681B69DB000E4913434B6000F0F9
:101FAC0021F802460B4B5B681B0903F00F030A492F
:101FBC00CB5C22FA03F3094A1360094B1B681846E1
:101FCC00FEF7C4FE002318461037BD4680BD00BF87
:101FDC000020024000100240B4260008000000203F
:101FEC000400002080B487B000AF0023FB60002306
:101FFC00BB6000237B6100237B6000233B611E4B95
:10200C005B68FB60FB6803F00C03042B02D0082B0D
:10201C0003D027E0194B3B6127E0FB689B0C03F0D6
:10202C000F03174AD35C7B60FB6803F48033002BEF
:10203C0010D0114B5B685B0C03F00103114AD35CAD
:10204C00BB607B680D4A03FB02F2BB68B2FBF3F387
:10205C007B6104E07B680C4A02FB03F37B617B69C8
:10206C003B6102E0054B3B6100BF3B6918461C37E6
:10207C00BD4680BC704700BF0010024000127A00C1
:10208C00C4260008D426000800093D0080B485B0A1
:10209C0000AF78600A4B1B680A4AA2FB03235B0A59
:1020AC007A6802FB03F3FB6000BFFB685A1EFA6000
:1020BC00002BF9D100BF00BF1437BD4680BC704760
:1020CC0000000020D34D621080B582B000AF786064
:1020DC007B68002B01D1012341E07B6893F83D30F4
:1020EC00DBB2002B06D17B68002283F83C20786899
:1020FC00FEF79AFC7B68022283F83D207B681A6805
:10210C007B6804331946104600F040F97B680122C5
:10211C0083F846207B68012283F83E207B680122ED
:10212C0083F83F207B68012283F840207B680122E2
:10213C0083F841207B68012283F842207B680122CE
:10214C0083F843207B68012283F844207B680122BA
:10215C0083F845207B68012283F83D200023184634
:10216C000837BD4680BD000080B485B000AF7860F4
:10217C007B6893F83D30DBB2012B01D0012332E0B8
:10218C007B68022283F83D207B681B68184A9342C7
:10219C000ED07B681B68B3F1804F09D07B681B683D
:1021AC00144A934204D07B681B68134A934211D1A2
:1021BC007B681B689B6803F00703FB60FB68062BBE
:1021CC0010D07B681B681A687B681B6842F00102A0
:1021DC001A6007E07B681B681A687B681B6842F012
:1021EC0001021A60002318461437BD4680BC7047A4
:1021FC00002C0140000400400008004080B584B071
:10220C0000AF786039600023FB737B6893F83C3037
:10221C00012B01D10223B4E07B68012283F83C201E
:10222C007B68022283F83D207B681B689B68BB603F
:10223C00BB6823F07703BB60BB6823F47F43BB60B0
:10224C007B681B68BA689A603B681B68B3F5005FD3
:10225C003ED0B3F5005F00F28780B3F5805F00F0ED
:10226C008680B3F5805F7FD8702B1AD0702B7BD80B
:10227C00602B50D0602B77D8502B3CD0502B73D880
:10228C00402B58D0402B6FD8302B64D0302B6BD8D0
:10229C00202B60D0202B67D8002B5CD0102B5AD071
:1022AC0062E07B6818683B6899683B685A683B68D1
:1022BC00DB6800F044F97B681B689B68BB60BB68FB
:1022CC0043F07703BB607B681B68BA689A604FE089
:1022DC007B6818683B6899683B685A683B68DB68A0
:1022EC0000F02DF97B681B689A687B681B6842F4C8
:1022FC0080429A603CE07B6818683B6859683B6890
:10230C00DB681A4600F0A4F87B681B68502118465D
:10231C0000F0FBF82CE07B6818683B6859683B6858
:10232C00DB681A4600F0C2F87B681B68602118460F
:10233C0000F0EBF81CE07B6818683B6859683B6858
:10234C00DB681A4600F084F87B681B68402118464D
:10235C0000F0DBF80CE07B681A683B681B681946D8
:10236C00104600F0D2F803E00123FB7300E000BF3D
:10237C007B68012283F83D207B68002283F83C2097
:10238C00FB7B18461037BD4680BD000080B485B07D
:10239C0000AF786039607B681B68FB607B68294AFA
:1023AC0093420BD07B68B3F1804F07D07B68264AF1
:1023BC00934203D07B68254A934208D1FB6823F0F3
:1023CC007003FB603B685B68FA681343FB607B68D7
:1023DC001C4A93420BD07B68B3F1804F07D07B68CB
:1023EC00194A934203D07B68184A934208D1FB6880
:1023FC0023F44073FB603B68DB68FA681343FB60B3
:10240C00FB6823F080023B685B691343FB607B68CD
:10241C00FA681A603B689A687B68DA623B681A68EB
:10242C007B689A627B68074A934203D13B681A69BE
:10243C007B681A637B6801225A6100BF1437BD4662
:10244C0080BC7047002C0140000400400008004094
:10245C0080B487B000AFF860B9607A60FB681B6A23
:10246C007B61FB681B6A23F00102FB681A62FB6844
:10247C009B693B613B6923F0F0033B617B681B016B
:10248C003A6913433B617B6923F00A037B617A69E8
:10249C00BB6813437B61FB683A699A61FB687A6994
:1024AC001A6200BF1C37BD4680BC704780B487B031
:1024BC0000AFF860B9607A60FB681B6A7B61FB68EF
:1024CC001B6A23F01002FB681A62FB689B693B6174
:1024DC003B6923F470433B617B681B033A691343EC
:1024EC003B617B6923F0A0037B61BB681B017A69AC
:1024FC0013437B61FB683A699A61FB687A691A62DB
:10250C0000BF1C37BD4680BC704780B485B000AF9F
:10251C00786039607B689B68FB60FB6823F0700314
:10252C00FB603A68FB68134343F00703FB607B686E
:10253C00FA689A6000BF1437BD4680BC704780B4FF
:10254C0087B000AFF860B9607A603B60FB689B684D
:10255C007B617B6923F47F437B613B681A027B6858
:10256C001A43BB6813437A6913437B61FB687A692E
:10257C009A6000BF1C37BD4680BC704780B485B0E4
:10258C0000AF786039607B6893F83C30012B01D147
:10259C00022346E07B68012283F83C207B68022200
:1025AC0083F83D207B681B685B68FB607B681B685D
:1025BC009B68BB60FB6823F07003FB603B681B6887
:1025CC00FA681343FB607B681B68FA685A607B6887
:1025DC001B68164A93420ED07B681B68B3F1804F80
:1025EC0009D07B681B68124A934204D07B681B6835
:1025FC00104A93420CD1BB6823F08003BB603B684C
:10260C005B68BA681343BB607B681B68BA689A60E6
:10261C007B68012283F83D207B68002283F83C20F4
:10262C00002318461437BD4680BC7047002C01406F
:10263C00000400400008004070B500260C4D0D4C05
:10264C00641BA410A64209D100F022F800260A4D02
:10265C000A4C641BA410A64205D170BD55F8043B6E
:10266C0098470136EEE755F8043B98470136F2E7F8
:10267C00D8260008D8260008D8260008DC26000832
:10268C0003460244934200D1704703F8011BF9E75B
:10269C00F8B500BFF8BC08BC9E467047F8B500BF43
:0826AC00F8BC08BC9E46704713
:1026B40000000000000000000102030406070809EE
:1026C40002030405060708090A0B0C0D0E0F10106F
:0426D40001020000FF
:0426D80031010008C4
:0426DC000D010008E4
:0C26E0000024F4001000000001000000C5
:0400000508000CE102
:00000001FF
